{
  "contractName": "LocalEthereumEscrows",
  "abi": [
    {
      "constant": true,
      "inputs": [],
      "name": "requestCancellationMinimumTime",
      "outputs": [
        {
          "name": "",
          "type": "uint32"
        }
      ],
      "payable": false,
      "stateMutability": "view",
      "type": "function"
    },
    {
      "constant": true,
      "inputs": [],
      "name": "arbitrator",
      "outputs": [
        {
          "name": "",
          "type": "address"
        }
      ],
      "payable": false,
      "stateMutability": "view",
      "type": "function"
    },
    {
      "constant": true,
      "inputs": [],
      "name": "relayer",
      "outputs": [
        {
          "name": "",
          "type": "address"
        }
      ],
      "payable": false,
      "stateMutability": "view",
      "type": "function"
    },
    {
      "constant": true,
      "inputs": [],
      "name": "owner",
      "outputs": [
        {
          "name": "",
          "type": "address"
        }
      ],
      "payable": false,
      "stateMutability": "view",
      "type": "function"
    },
    {
      "constant": true,
      "inputs": [],
      "name": "feesAvailableForWithdraw",
      "outputs": [
        {
          "name": "",
          "type": "uint256"
        }
      ],
      "payable": false,
      "stateMutability": "view",
      "type": "function"
    },
    {
      "inputs": [],
      "payable": false,
      "stateMutability": "nonpayable",
      "type": "constructor"
    },
    {
      "anonymous": false,
      "inputs": [
        {
          "indexed": false,
          "name": "_tradeHash",
          "type": "bytes32"
        }
      ],
      "name": "Created",
      "type": "event"
    },
    {
      "anonymous": false,
      "inputs": [
        {
          "indexed": false,
          "name": "_tradeHash",
          "type": "bytes32"
        }
      ],
      "name": "SellerCancelDisabled",
      "type": "event"
    },
    {
      "anonymous": false,
      "inputs": [
        {
          "indexed": false,
          "name": "_tradeHash",
          "type": "bytes32"
        }
      ],
      "name": "SellerRequestedCancel",
      "type": "event"
    },
    {
      "anonymous": false,
      "inputs": [
        {
          "indexed": false,
          "name": "_tradeHash",
          "type": "bytes32"
        }
      ],
      "name": "CancelledBySeller",
      "type": "event"
    },
    {
      "anonymous": false,
      "inputs": [
        {
          "indexed": false,
          "name": "_tradeHash",
          "type": "bytes32"
        }
      ],
      "name": "CancelledByBuyer",
      "type": "event"
    },
    {
      "anonymous": false,
      "inputs": [
        {
          "indexed": false,
          "name": "_tradeHash",
          "type": "bytes32"
        }
      ],
      "name": "Released",
      "type": "event"
    },
    {
      "anonymous": false,
      "inputs": [
        {
          "indexed": false,
          "name": "_tradeHash",
          "type": "bytes32"
        }
      ],
      "name": "DisputeResolved",
      "type": "event"
    },
    {
      "constant": false,
      "inputs": [
        {
          "name": "_newArbitrator",
          "type": "address"
        }
      ],
      "name": "setArbitrator",
      "outputs": [],
      "payable": false,
      "stateMutability": "nonpayable",
      "type": "function"
    },
    {
      "constant": false,
      "inputs": [
        {
          "name": "_newOwner",
          "type": "address"
        }
      ],
      "name": "setOwner",
      "outputs": [],
      "payable": false,
      "stateMutability": "nonpayable",
      "type": "function"
    },
    {
      "constant": false,
      "inputs": [
        {
          "name": "_newRelayer",
          "type": "address"
        }
      ],
      "name": "setRelayer",
      "outputs": [],
      "payable": false,
      "stateMutability": "nonpayable",
      "type": "function"
    },
    {
      "constant": false,
      "inputs": [
        {
          "name": "_newRequestCancellationMinimumTime",
          "type": "uint32"
        }
      ],
      "name": "setRequestCancellationMinimumTime",
      "outputs": [],
      "payable": false,
      "stateMutability": "nonpayable",
      "type": "function"
    },
    {
      "constant": false,
      "inputs": [],
      "name": "doBuyerCancel",
      "outputs": [],
      "payable": false,
      "stateMutability": "nonpayable",
      "type": "function"
    },
    {
      "constant": false,
      "inputs": [],
      "name": "doDisableSellerCancel",
      "outputs": [],
      "payable": false,
      "stateMutability": "nonpayable",
      "type": "function"
    },
    {
      "constant": false,
      "inputs": [],
      "name": "createEscrow",
      "outputs": [],
      "payable": false,
      "stateMutability": "nonpayable",
      "type": "function"
    },
    {
      "constant": false,
      "inputs": [],
      "name": "getValue",
      "outputs": [
        {
          "name": "",
          "type": "uint256"
        }
      ],
      "payable": false,
      "stateMutability": "nonpayable",
      "type": "function"
    },
    {
      "constant": false,
      "inputs": [],
      "name": "doSellerCancel",
      "outputs": [],
      "payable": false,
      "stateMutability": "nonpayable",
      "type": "function"
    },
    {
      "constant": false,
      "inputs": [],
      "name": "doRelease",
      "outputs": [],
      "payable": false,
      "stateMutability": "nonpayable",
      "type": "function"
    }
  ],
  "bytecode": "0x6060604052600a600460006101000a81548163ffffffff021916908363ffffffff160217905550341561003157600080fd5b33600160006101000a81548173ffffffffffffffffffffffffffffffffffffffff021916908373ffffffffffffffffffffffffffffffffffffffff160217905550336000806101000a81548173ffffffffffffffffffffffffffffffffffffffff021916908373ffffffffffffffffffffffffffffffffffffffff16021790555033600260006101000a81548173ffffffffffffffffffffffffffffffffffffffff021916908373ffffffffffffffffffffffffffffffffffffffff16021790555061014d600260146101000a81548163ffffffff021916908363ffffffff1602179055506109c6806101256000396000f3006060604052600436106100db576000357c0100000000000000000000000000000000000000000000000000000000900463ffffffff16806305b64993146100e057806313af4035146101095780632096525514610142578063560a8d621461016b57806357938b2a146101805780636548e9bc146101b55780636cc6cde1146101ee5780638406c079146102435780638afcd93e146102985780638da5cb5b146102ad5780639f89909a14610302578063b050521f14610317578063b0eefabe1461032c578063b3dbae9c14610365578063de5785d51461037a575b600080fd5b34156100eb57600080fd5b610107600480803563ffffffff169060200190919050506103a3565b005b341561011457600080fd5b610140600480803573ffffffffffffffffffffffffffffffffffffffff16906020019091905050610423565b005b341561014d57600080fd5b6101556104c3565b6040518082815260200191505060405180910390f35b341561017657600080fd5b61017e6104e3565b005b341561018b57600080fd5b61019361055a565b604051808263ffffffff1663ffffffff16815260200191505060405180910390f35b34156101c057600080fd5b6101ec600480803573ffffffffffffffffffffffffffffffffffffffff16906020019091905050610570565b005b34156101f957600080fd5b610201610610565b604051808273ffffffffffffffffffffffffffffffffffffffff1673ffffffffffffffffffffffffffffffffffffffff16815260200191505060405180910390f35b341561024e57600080fd5b610256610635565b604051808273ffffffffffffffffffffffffffffffffffffffff1673ffffffffffffffffffffffffffffffffffffffff16815260200191505060405180910390f35b34156102a357600080fd5b6102ab61065b565b005b34156102b857600080fd5b6102c06106f8565b604051808273ffffffffffffffffffffffffffffffffffffffff1673ffffffffffffffffffffffffffffffffffffffff16815260200191505060405180910390f35b341561030d57600080fd5b61031561071e565b005b341561032257600080fd5b61032a6107bb565b005b341561033757600080fd5b610363600480803573ffffffffffffffffffffffffffffffffffffffff16906020019091905050610858565b005b341561037057600080fd5b6103786108f7565b005b341561038557600080fd5b61038d610994565b6040518082815260200191505060405180910390f35b600160009054906101000a900473ffffffffffffffffffffffffffffffffffffffff1673ffffffffffffffffffffffffffffffffffffffff163373ffffffffffffffffffffffffffffffffffffffff161415156103ff57600080fd5b80600260146101000a81548163ffffffff021916908363ffffffff16021790555050565b600160009054906101000a900473ffffffffffffffffffffffffffffffffffffffff1673ffffffffffffffffffffffffffffffffffffffff163373ffffffffffffffffffffffffffffffffffffffff1614151561047f57600080fd5b80600160006101000a81548173ffffffffffffffffffffffffffffffffffffffff021916908373ffffffffffffffffffffffffffffffffffffffff16021790555050565b6000600460009054906101000a900463ffffffff1663ffffffff16905090565b6001600460009054906101000a900463ffffffff1601600460006101000a81548163ffffffff021916908363ffffffff1602179055507f102d25c49d33fcdb8976a3f2744e0785c98d9e43b88364859e6aec4ae82eff5c6001604051808260010260001916815260200191505060405180910390a1565b600260149054906101000a900463ffffffff1681565b600160009054906101000a900473ffffffffffffffffffffffffffffffffffffffff1673ffffffffffffffffffffffffffffffffffffffff163373ffffffffffffffffffffffffffffffffffffffff161415156105cc57600080fd5b80600260006101000a81548173ffffffffffffffffffffffffffffffffffffffff021916908373ffffffffffffffffffffffffffffffffffffffff16021790555050565b6000809054906101000a900473ffffffffffffffffffffffffffffffffffffffff1681565b600260009054906101000a900473ffffffffffffffffffffffffffffffffffffffff1681565b600160009054906101000a900473ffffffffffffffffffffffffffffffffffffffff1673ffffffffffffffffffffffffffffffffffffffff163373ffffffffffffffffffffffffffffffffffffffff161415156106b757600080fd5b7f366d2b4e6cc37ecebb3d7d41df6d581634fd8137412710a1e086e4ca4656bb586001604051808260010260001916815260200191505060405180910390a1565b600160009054906101000a900473ffffffffffffffffffffffffffffffffffffffff1681565b600160009054906101000a900473ffffffffffffffffffffffffffffffffffffffff1673ffffffffffffffffffffffffffffffffffffffff163373ffffffffffffffffffffffffffffffffffffffff1614151561077a57600080fd5b7fd9b627ddaa414e8e6c82366cc9c179f6281d73968827cc17038a56852e28ac8b6001604051808260010260001916815260200191505060405180910390a1565b600160009054906101000a900473ffffffffffffffffffffffffffffffffffffffff1673ffffffffffffffffffffffffffffffffffffffff163373ffffffffffffffffffffffffffffffffffffffff1614151561081757600080fd5b7fe95fa7985c7585e90dab2dc46470726468662be06f67d79a31a5012e4bc0edeb6001604051808260010260001916815260200191505060405180910390a1565b600160009054906101000a900473ffffffffffffffffffffffffffffffffffffffff1673ffffffffffffffffffffffffffffffffffffffff163373ffffffffffffffffffffffffffffffffffffffff161415156108b457600080fd5b806000806101000a81548173ffffffffffffffffffffffffffffffffffffffff021916908373ffffffffffffffffffffffffffffffffffffffff16021790555050565b600160009054906101000a900473ffffffffffffffffffffffffffffffffffffffff1673ffffffffffffffffffffffffffffffffffffffff163373ffffffffffffffffffffffffffffffffffffffff1614151561095357600080fd5b7f6eec2dd2382427616d4ea7ef183b16091feac4e2e63c8b55f25215f132df8d146001604051808260010260001916815260200191505060405180910390a1565b600354815600a165627a7a723058201097b65f27afb24fec4ab8bb892f4e9fe78a9363131cb2dcd5872e75db0d54420029",
  "source": "pragma solidity ^0.4.18;\ncontract LocalEthereumEscrows {\n    // The address of the arbitrator\n    // In the first version, this is always localethereum staff.\n    address public arbitrator;\n    address public owner;\n    address public relayer;\n\n    uint32 public requestCancellationMinimumTime;\n    uint256 public feesAvailableForWithdraw;\n\n    uint8 constant ACTION_SELLER_CANNOT_CANCEL = 0x01; // Called when marking as paid or calling a dispute as the buyer\n    uint8 constant ACTION_BUYER_CANCEL = 0x02;\n    uint8 constant ACTION_SELLER_CANCEL = 0x03;\n    uint8 constant ACTION_SELLER_REQUEST_CANCEL = 0x04;\n    uint8 constant ACTION_RELEASE = 0x05;\n    uint8 constant ACTION_DISPUTE = 0x06;\n\n\n    event Created(bytes32 _tradeHash);\n    event SellerCancelDisabled(bytes32 _tradeHash);\n    event SellerRequestedCancel(bytes32 _tradeHash);\n    event CancelledBySeller(bytes32 _tradeHash);\n    event CancelledByBuyer(bytes32 _tradeHash);\n    event Released(bytes32 _tradeHash);\n    event DisputeResolved(bytes32 _tradeHash);\n\n    modifier onlyOwner() {\n        require(msg.sender == owner);\n        _;\n    }\n\n    modifier onlyArbitrator() {\n        require(msg.sender == arbitrator);\n        _;\n    }\n\n    function LocalEthereumEscrows() public {\n        /**\n         * Initialize the contract.\n         */\n        owner = msg.sender;\n        arbitrator = msg.sender;\n        relayer = msg.sender;\n        requestCancellationMinimumTime = 333; // TODO\n    }\n\n    function setArbitrator(address _newArbitrator) onlyOwner external {\n        /**\n         * Set the arbitrator to a new address. Only the owner can call this.\n         * @param address _newArbitrator\n         */\n        arbitrator = _newArbitrator;\n    }\n\n    function setOwner(address _newOwner) onlyOwner external {\n        /**\n         * Change the owner to a new address. Only the owner can call this.\n         * @param address _newOwner\n         */\n        owner = _newOwner;\n    }\n\n    function setRelayer(address _newRelayer) onlyOwner external {\n        /**\n         * Change the relayer to a new address. Only the owner can call this.\n         * @param address _newRelayer\n         */\n        relayer = _newRelayer;\n    }\n\n    function setRequestCancellationMinimumTime(uint32 _newRequestCancellationMinimumTime) onlyOwner external {\n        /**\n         * Change the requestCancellationMinimumTime. Only the owner can call this.\n         * @param uint32 _newRequestCancellationMinimumTime\n         */\n        requestCancellationMinimumTime = _newRequestCancellationMinimumTime;\n    }\n\n\n\n\n    function doBuyerCancel() onlyOwner external {\n\n        CancelledByBuyer(0x01);\n    }\n\n    function doDisableSellerCancel() onlyOwner external {\n\n        SellerCancelDisabled(0x01);\n    }\n\n    uint32 value = 10;\n\n    function createEscrow()  external {\n\n        value = value + 1;\n        Created(0x01);\n    }\n\n    function getValue()  returns (uint)  {\n\n        return value;\n    }\n\n    function doSellerCancel() onlyOwner external {\n\n        CancelledBySeller(0x01);\n    }\n\n    function doRelease() onlyOwner external {\n\n        Released(0x01);\n    }\n\n}\n",
  "sourcePath": "/home/kris-allen/GNSS/github/baseblock/contracts/LocalEthereumEscrows.sol",
  "compiler": {
    "name": "solc",
    "version": "0.4.19+commit.c4cbbb05.Emscripten.clang"
  },
  "schemaVersion": "1.0.1",
  "updatedAt": "2018-02-08T03:39:49.945Z"
}