{
  "contractName": "LocalEthereumEscrows",
  "abi": [
    {
      "constant": false,
      "inputs": [
        {
          "name": "_newRequestCancellationMinimumTime",
          "type": "uint32"
        }
      ],
      "name": "setRequestCancellationMinimumTime",
      "outputs": [],
      "payable": false,
      "stateMutability": "nonpayable",
      "type": "function"
    },
    {
      "constant": false,
      "inputs": [],
      "name": "getBalance",
      "outputs": [
        {
          "name": "",
          "type": "uint256"
        }
      ],
      "payable": false,
      "stateMutability": "nonpayable",
      "type": "function"
    },
    {
      "constant": false,
      "inputs": [
        {
          "name": "_newOwner",
          "type": "address"
        }
      ],
      "name": "setOwner",
      "outputs": [],
      "payable": false,
      "stateMutability": "nonpayable",
      "type": "function"
    },
    {
      "constant": true,
      "inputs": [],
      "name": "getTimestamp",
      "outputs": [
        {
          "name": "",
          "type": "uint32"
        }
      ],
      "payable": false,
      "stateMutability": "view",
      "type": "function"
    },
    {
      "constant": true,
      "inputs": [],
      "name": "getValue",
      "outputs": [
        {
          "name": "",
          "type": "uint32"
        },
        {
          "name": "",
          "type": "bytes32"
        }
      ],
      "payable": false,
      "stateMutability": "view",
      "type": "function"
    },
    {
      "constant": true,
      "inputs": [
        {
          "name": "",
          "type": "bytes32"
        }
      ],
      "name": "escrows",
      "outputs": [
        {
          "name": "exists",
          "type": "bool"
        },
        {
          "name": "sellerCanCancelAfter",
          "type": "uint32"
        },
        {
          "name": "totalGasFeesSpentByRelayer",
          "type": "uint128"
        }
      ],
      "payable": false,
      "stateMutability": "view",
      "type": "function"
    },
    {
      "constant": false,
      "inputs": [
        {
          "name": "_tradeID",
          "type": "bytes16"
        },
        {
          "name": "_seller",
          "type": "address"
        },
        {
          "name": "_buyer",
          "type": "address"
        },
        {
          "name": "_value",
          "type": "uint256"
        },
        {
          "name": "_fee",
          "type": "uint16"
        }
      ],
      "name": "doSellerCancel",
      "outputs": [
        {
          "name": "",
          "type": "bool"
        }
      ],
      "payable": false,
      "stateMutability": "nonpayable",
      "type": "function"
    },
    {
      "constant": false,
      "inputs": [
        {
          "name": "_tradeID",
          "type": "bytes16"
        },
        {
          "name": "_seller",
          "type": "address"
        },
        {
          "name": "_buyer",
          "type": "address"
        },
        {
          "name": "_value",
          "type": "uint256"
        },
        {
          "name": "_fee",
          "type": "uint16"
        }
      ],
      "name": "claimTimeout",
      "outputs": [
        {
          "name": "",
          "type": "bool"
        }
      ],
      "payable": false,
      "stateMutability": "nonpayable",
      "type": "function"
    },
    {
      "constant": true,
      "inputs": [],
      "name": "requestCancellationMinimumTime",
      "outputs": [
        {
          "name": "",
          "type": "uint32"
        }
      ],
      "payable": false,
      "stateMutability": "view",
      "type": "function"
    },
    {
      "constant": false,
      "inputs": [
        {
          "name": "_newRelayer",
          "type": "address"
        }
      ],
      "name": "setRelayer",
      "outputs": [],
      "payable": false,
      "stateMutability": "nonpayable",
      "type": "function"
    },
    {
      "constant": true,
      "inputs": [],
      "name": "arbitrator",
      "outputs": [
        {
          "name": "",
          "type": "address"
        }
      ],
      "payable": false,
      "stateMutability": "view",
      "type": "function"
    },
    {
      "constant": false,
      "inputs": [
        {
          "name": "_tradeID",
          "type": "bytes16"
        },
        {
          "name": "_seller",
          "type": "address"
        },
        {
          "name": "_buyer",
          "type": "address"
        },
        {
          "name": "_value",
          "type": "uint256"
        },
        {
          "name": "_fee",
          "type": "uint16"
        }
      ],
      "name": "doBuyerCancel",
      "outputs": [
        {
          "name": "",
          "type": "bool"
        }
      ],
      "payable": false,
      "stateMutability": "nonpayable",
      "type": "function"
    },
    {
      "constant": false,
      "inputs": [
        {
          "name": "_tradeID",
          "type": "bytes16"
        },
        {
          "name": "_seller",
          "type": "address"
        },
        {
          "name": "_buyer",
          "type": "address"
        },
        {
          "name": "_value",
          "type": "uint256"
        },
        {
          "name": "_fee",
          "type": "uint16"
        },
        {
          "name": "_paymentWindowInSeconds",
          "type": "uint32"
        },
        {
          "name": "_expiry",
          "type": "uint32"
        }
      ],
      "name": "createEscrow",
      "outputs": [],
      "payable": true,
      "stateMutability": "payable",
      "type": "function"
    },
    {
      "constant": true,
      "inputs": [],
      "name": "relayer",
      "outputs": [
        {
          "name": "",
          "type": "address"
        }
      ],
      "payable": false,
      "stateMutability": "view",
      "type": "function"
    },
    {
      "constant": true,
      "inputs": [],
      "name": "owner",
      "outputs": [
        {
          "name": "",
          "type": "address"
        }
      ],
      "payable": false,
      "stateMutability": "view",
      "type": "function"
    },
    {
      "constant": true,
      "inputs": [],
      "name": "getEscrowNumber",
      "outputs": [
        {
          "name": "",
          "type": "uint32"
        }
      ],
      "payable": false,
      "stateMutability": "view",
      "type": "function"
    },
    {
      "constant": true,
      "inputs": [
        {
          "name": "_tradeHash",
          "type": "bytes32"
        }
      ],
      "name": "getEscrowData",
      "outputs": [
        {
          "name": "",
          "type": "bool"
        },
        {
          "name": "",
          "type": "uint32"
        },
        {
          "name": "",
          "type": "uint32"
        }
      ],
      "payable": false,
      "stateMutability": "view",
      "type": "function"
    },
    {
      "constant": false,
      "inputs": [
        {
          "name": "_to",
          "type": "address"
        },
        {
          "name": "_amount",
          "type": "uint256"
        }
      ],
      "name": "withdrawFees",
      "outputs": [],
      "payable": false,
      "stateMutability": "nonpayable",
      "type": "function"
    },
    {
      "constant": false,
      "inputs": [],
      "name": "doDisableSellerCancel",
      "outputs": [],
      "payable": false,
      "stateMutability": "nonpayable",
      "type": "function"
    },
    {
      "constant": false,
      "inputs": [
        {
          "name": "_newArbitrator",
          "type": "address"
        }
      ],
      "name": "setArbitrator",
      "outputs": [],
      "payable": false,
      "stateMutability": "nonpayable",
      "type": "function"
    },
    {
      "constant": true,
      "inputs": [
        {
          "name": "_tradeID",
          "type": "bytes16"
        },
        {
          "name": "_seller",
          "type": "address"
        },
        {
          "name": "_buyer",
          "type": "address"
        },
        {
          "name": "_value",
          "type": "uint256"
        },
        {
          "name": "_fee",
          "type": "uint16"
        }
      ],
      "name": "getEscrowAndHash",
      "outputs": [
        {
          "components": [
            {
              "name": "exists",
              "type": "bool"
            },
            {
              "name": "sellerCanCancelAfter",
              "type": "uint32"
            },
            {
              "name": "totalGasFeesSpentByRelayer",
              "type": "uint128"
            }
          ],
          "name": "",
          "type": "tuple"
        },
        {
          "name": "",
          "type": "bytes32"
        }
      ],
      "payable": false,
      "stateMutability": "view",
      "type": "function"
    },
    {
      "constant": true,
      "inputs": [],
      "name": "feesAvailableForWithdraw",
      "outputs": [
        {
          "name": "",
          "type": "uint256"
        }
      ],
      "payable": false,
      "stateMutability": "view",
      "type": "function"
    },
    {
      "constant": false,
      "inputs": [
        {
          "name": "_tradeID",
          "type": "bytes16"
        },
        {
          "name": "_seller",
          "type": "address"
        },
        {
          "name": "_buyer",
          "type": "address"
        },
        {
          "name": "_value",
          "type": "uint256"
        },
        {
          "name": "_fee",
          "type": "uint16"
        },
        {
          "name": "signature",
          "type": "bytes"
        }
      ],
      "name": "close",
      "outputs": [],
      "payable": false,
      "stateMutability": "nonpayable",
      "type": "function"
    },
    {
      "constant": false,
      "inputs": [
        {
          "name": "_tradeID",
          "type": "bytes16"
        },
        {
          "name": "_seller",
          "type": "address"
        },
        {
          "name": "_buyer",
          "type": "address"
        },
        {
          "name": "_value",
          "type": "uint256"
        },
        {
          "name": "_fee",
          "type": "uint16"
        }
      ],
      "name": "doRelease",
      "outputs": [
        {
          "name": "",
          "type": "bool"
        }
      ],
      "payable": false,
      "stateMutability": "nonpayable",
      "type": "function"
    },
    {
      "inputs": [],
      "payable": false,
      "stateMutability": "nonpayable",
      "type": "constructor"
    },
    {
      "anonymous": false,
      "inputs": [
        {
          "indexed": false,
          "name": "_tradeHash",
          "type": "bytes32"
        }
      ],
      "name": "Created",
      "type": "event"
    },
    {
      "anonymous": false,
      "inputs": [
        {
          "indexed": false,
          "name": "_tradeHash",
          "type": "bytes32"
        }
      ],
      "name": "SellerCancelDisabled",
      "type": "event"
    },
    {
      "anonymous": false,
      "inputs": [
        {
          "indexed": false,
          "name": "_tradeHash",
          "type": "bytes32"
        }
      ],
      "name": "SellerRequestedCancel",
      "type": "event"
    },
    {
      "anonymous": false,
      "inputs": [
        {
          "indexed": false,
          "name": "_tradeHash",
          "type": "bytes32"
        }
      ],
      "name": "CancelledBySeller",
      "type": "event"
    },
    {
      "anonymous": false,
      "inputs": [
        {
          "indexed": false,
          "name": "_tradeHash",
          "type": "bytes32"
        }
      ],
      "name": "CancelledByBuyer",
      "type": "event"
    },
    {
      "anonymous": false,
      "inputs": [
        {
          "indexed": false,
          "name": "_tradeHash",
          "type": "bytes32"
        }
      ],
      "name": "Released",
      "type": "event"
    },
    {
      "anonymous": false,
      "inputs": [
        {
          "indexed": false,
          "name": "_tradeHash",
          "type": "bytes32"
        }
      ],
      "name": "DisputeResolved",
      "type": "event"
    }
  ],
  "bytecode": "0x6060604052600a600560006101000a81548163ffffffff021916908363ffffffff1602179055506000600760006101000a81548163ffffffff021916908363ffffffff160217905550341561005357600080fd5b33600160006101000a81548173ffffffffffffffffffffffffffffffffffffffff021916908373ffffffffffffffffffffffffffffffffffffffff160217905550336000806101000a81548173ffffffffffffffffffffffffffffffffffffffff021916908373ffffffffffffffffffffffffffffffffffffffff16021790555033600260006101000a81548173ffffffffffffffffffffffffffffffffffffffff021916908373ffffffffffffffffffffffffffffffffffffffff160217905550611c20600260146101000a81548163ffffffff021916908363ffffffff160217905550611d7d806101476000396000f30060606040526004361061013e576000357c0100000000000000000000000000000000000000000000000000000000900463ffffffff16806305b649931461014357806312065fe01461016c57806313af403514610195578063188ec356146101ce57806320965255146102035780632d83549c146102475780632e9fb68f146102c457806354e7f2ee1461036657806357938b2a146104085780636548e9bc1461043d5780636cc6cde11461047657806372c9d348146104cb5780637eb2b8561461056d5780638406c0791461060a5780638da5cb5b1461065f578063a26ef187146106b4578063a7dc5200146106e9578063ad3b1b471461074e578063b050521f14610790578063b0eefabe146107a5578063d9784223146107de578063de5785d51461088b578063e6776c58146108b4578063e8a5412714610981575b600080fd5b341561014e57600080fd5b61016a600480803563ffffffff16906020019091905050610a23565b005b341561017757600080fd5b61017f610aa3565b6040518082815260200191505060405180910390f35b34156101a057600080fd5b6101cc600480803573ffffffffffffffffffffffffffffffffffffffff16906020019091905050610b1e565b005b34156101d957600080fd5b6101e1610bbe565b604051808263ffffffff1663ffffffff16815260200191505060405180910390f35b341561020e57600080fd5b610216610bc6565b604051808363ffffffff1663ffffffff16815260200182600019166000191681526020019250505060405180910390f35b341561025257600080fd5b61026c600480803560001916906020019091905050610be7565b60405180841515151581526020018363ffffffff1663ffffffff168152602001826fffffffffffffffffffffffffffffffff166fffffffffffffffffffffffffffffffff168152602001935050505060405180910390f35b34156102cf57600080fd5b61034c60048080356fffffffffffffffffffffffffffffffff191690602001909190803573ffffffffffffffffffffffffffffffffffffffff1690602001909190803573ffffffffffffffffffffffffffffffffffffffff1690602001909190803590602001909190803561ffff16906020019091905050610c4a565b604051808215151515815260200191505060405180910390f35b341561037157600080fd5b6103ee60048080356fffffffffffffffffffffffffffffffff191690602001909190803573ffffffffffffffffffffffffffffffffffffffff1690602001909190803573ffffffffffffffffffffffffffffffffffffffff1690602001909190803590602001909190803561ffff16906020019091905050610dd5565b604051808215151515815260200191505060405180910390f35b341561041357600080fd5b61041b610e43565b604051808263ffffffff1663ffffffff16815260200191505060405180910390f35b341561044857600080fd5b610474600480803573ffffffffffffffffffffffffffffffffffffffff16906020019091905050610e59565b005b341561048157600080fd5b610489610ef9565b604051808273ffffffffffffffffffffffffffffffffffffffff1673ffffffffffffffffffffffffffffffffffffffff16815260200191505060405180910390f35b34156104d657600080fd5b61055360048080356fffffffffffffffffffffffffffffffff191690602001909190803573ffffffffffffffffffffffffffffffffffffffff1690602001909190803573ffffffffffffffffffffffffffffffffffffffff1690602001909190803590602001909190803561ffff16906020019091905050610f1e565b604051808215151515815260200191505060405180910390f35b61060860048080356fffffffffffffffffffffffffffffffff191690602001909190803573ffffffffffffffffffffffffffffffffffffffff1690602001909190803573ffffffffffffffffffffffffffffffffffffffff1690602001909190803590602001909190803561ffff1690602001909190803563ffffffff1690602001909190803563ffffffff169060200190919050506110a9565b005b341561061557600080fd5b61061d61137d565b604051808273ffffffffffffffffffffffffffffffffffffffff1673ffffffffffffffffffffffffffffffffffffffff16815260200191505060405180910390f35b341561066a57600080fd5b6106726113a3565b604051808273ffffffffffffffffffffffffffffffffffffffff1673ffffffffffffffffffffffffffffffffffffffff16815260200191505060405180910390f35b34156106bf57600080fd5b6106c76113c9565b604051808263ffffffff1663ffffffff16815260200191505060405180910390f35b34156106f457600080fd5b61070e6004808035600019169060200190919050506113e3565b60405180841515151581526020018363ffffffff1663ffffffff1681526020018263ffffffff1663ffffffff168152602001935050505060405180910390f35b341561075957600080fd5b61078e600480803573ffffffffffffffffffffffffffffffffffffffff169060200190919080359060200190919050506114cf565b005b341561079b57600080fd5b6107a3611590565b005b34156107b057600080fd5b6107dc600480803573ffffffffffffffffffffffffffffffffffffffff1690602001909190505061162d565b005b34156107e957600080fd5b61086660048080356fffffffffffffffffffffffffffffffff191690602001909190803573ffffffffffffffffffffffffffffffffffffffff1690602001909190803573ffffffffffffffffffffffffffffffffffffffff1690602001909190803590602001909190803561ffff169060200190919050506116cc565b6040518083815260200182600019166000191681526020019250505060405180910390f35b341561089657600080fd5b61089e611899565b6040518082815260200191505060405180910390f35b34156108bf57600080fd5b61097f60048080356fffffffffffffffffffffffffffffffff191690602001909190803573ffffffffffffffffffffffffffffffffffffffff1690602001909190803573ffffffffffffffffffffffffffffffffffffffff1690602001909190803590602001909190803561ffff1690602001909190803590602001908201803590602001908080601f0160208091040260200160405190810160405280939291908181526020018383808284378201915050505050509190505061189f565b005b341561098c57600080fd5b610a0960048080356fffffffffffffffffffffffffffffffff191690602001909190803573ffffffffffffffffffffffffffffffffffffffff1690602001909190803573ffffffffffffffffffffffffffffffffffffffff1690602001909190803590602001909190803561ffff1690602001909190505061190d565b604051808215151515815260200191505060405180910390f35b600160009054906101000a900473ffffffffffffffffffffffffffffffffffffffff1673ffffffffffffffffffffffffffffffffffffffff163373ffffffffffffffffffffffffffffffffffffffff16141515610a7f57600080fd5b80600260146101000a81548163ffffffff021916908363ffffffff16021790555050565b6000600160009054906101000a900473ffffffffffffffffffffffffffffffffffffffff1673ffffffffffffffffffffffffffffffffffffffff163373ffffffffffffffffffffffffffffffffffffffff16141515610b0157600080fd5b3073ffffffffffffffffffffffffffffffffffffffff1631905090565b600160009054906101000a900473ffffffffffffffffffffffffffffffffffffffff1673ffffffffffffffffffffffffffffffffffffffff163373ffffffffffffffffffffffffffffffffffffffff16141515610b7a57600080fd5b80600160006101000a81548173ffffffffffffffffffffffffffffffffffffffff021916908373ffffffffffffffffffffffffffffffffffffffff16021790555050565b600042905090565b600080600560009054906101000a900463ffffffff16600654915091509091565b60046020528060005260406000206000915090508060000160009054906101000a900460ff16908060000160019054906101000a900463ffffffff16908060000160059054906101000a90046fffffffffffffffffffffffffffffffff16905083565b6000610c54611d15565b6000600160009054906101000a900473ffffffffffffffffffffffffffffffffffffffff1673ffffffffffffffffffffffffffffffffffffffff163373ffffffffffffffffffffffffffffffffffffffff16141515610cb257600080fd5b610cbf88888888886116cc565b9150915081600001511515610cd75760009250610dca565b600460008260001916600019168152602001908152602001600020600080820160006101000a81549060ff02191690556000820160016101000a81549063ffffffff02191690556000820160056101000a8154906fffffffffffffffffffffffffffffffff021916905550506001600760009054906101000a900463ffffffff1603600760006101000a81548163ffffffff021916908363ffffffff160217905550610d8a87868661ffff166000611a98565b7f366d2b4e6cc37ecebb3d7d41df6d581634fd8137412710a1e086e4ca4656bb586001604051808260010260001916815260200191505060405180910390a15b505095945050505050565b6000610ddf611d15565b6000610dee88888888886116cc565b9150915081600001511515610e065760009250610e38565b816020015163ffffffff164210151515610e1f57600080fd5b8673ffffffffffffffffffffffffffffffffffffffff16ff5b505095945050505050565b600260149054906101000a900463ffffffff1681565b600160009054906101000a900473ffffffffffffffffffffffffffffffffffffffff1673ffffffffffffffffffffffffffffffffffffffff163373ffffffffffffffffffffffffffffffffffffffff16141515610eb557600080fd5b80600260006101000a81548173ffffffffffffffffffffffffffffffffffffffff021916908373ffffffffffffffffffffffffffffffffffffffff16021790555050565b6000809054906101000a900473ffffffffffffffffffffffffffffffffffffffff1681565b6000610f28611d15565b6000600160009054906101000a900473ffffffffffffffffffffffffffffffffffffffff1673ffffffffffffffffffffffffffffffffffffffff163373ffffffffffffffffffffffffffffffffffffffff16141515610f8657600080fd5b610f9388888888886116cc565b9150915081600001511515610fab576000925061109e565b600460008260001916600019168152602001908152602001600020600080820160006101000a81549060ff02191690556000820160016101000a81549063ffffffff02191690556000820160056101000a8154906fffffffffffffffffffffffffffffffff021916905550506001600760009054906101000a900463ffffffff1603600760006101000a81548163ffffffff021916908363ffffffff16021790555061105e86868661ffff166000611a98565b7fd9b627ddaa414e8e6c82366cc9c179f6281d73968827cc17038a56852e28ac8b6001604051808260010260001916815260200191505060405180910390a15b505095945050505050565b600080888888888860405180866fffffffffffffffffffffffffffffffff19166fffffffffffffffffffffffffffffffff191681526010018573ffffffffffffffffffffffffffffffffffffffff1673ffffffffffffffffffffffffffffffffffffffff166c010000000000000000000000000281526014018473ffffffffffffffffffffffffffffffffffffffff1673ffffffffffffffffffffffffffffffffffffffff166c010000000000000000000000000281526014018381526020018261ffff1661ffff167e0100000000000000000000000000000000000000000000000000000000000002815260020195505050505050604051809103902091508263ffffffff16421015156111bd57600080fd5b85341480156111cc5750600034115b15156111d757600080fd5b60008463ffffffff16146111ed578342016111f0565b60015b90506060604051908101604052806001151581526020018263ffffffff16815260200160006fffffffffffffffffffffffffffffffff1681525060046000846000191660001916815260200190815260200160002060008201518160000160006101000a81548160ff02191690831515021790555060208201518160000160016101000a81548163ffffffff021916908363ffffffff16021790555060408201518160000160056101000a8154816fffffffffffffffffffffffffffffffff02191690836fffffffffffffffffffffffffffffffff1602179055509050506001600760009054906101000a900463ffffffff1601600760006101000a81548163ffffffff021916908363ffffffff16021790555060018301600560006101000a81548163ffffffff021916908363ffffffff16021790555081600681600019169055507f102d25c49d33fcdb8976a3f2744e0785c98d9e43b88364859e6aec4ae82eff5c6001604051808260010260001916815260200191505060405180910390a1505050505050505050565b600260009054906101000a900473ffffffffffffffffffffffffffffffffffffffff1681565b600160009054906101000a900473ffffffffffffffffffffffffffffffffffffffff1681565b6000600760009054906101000a900463ffffffff16905090565b60008060006113f0611d15565b600460008660001916600019168152602001908152602001600020606060405190810160405290816000820160009054906101000a900460ff161515151581526020016000820160019054906101000a900463ffffffff1663ffffffff1663ffffffff1681526020016000820160059054906101000a90046fffffffffffffffffffffffffffffffff166fffffffffffffffffffffffffffffffff166fffffffffffffffffffffffffffffffff1681525050905080600001518160200151600260149054906101000a900463ffffffff16935093509350509193909250565b600160009054906101000a900473ffffffffffffffffffffffffffffffffffffffff1673ffffffffffffffffffffffffffffffffffffffff163373ffffffffffffffffffffffffffffffffffffffff1614151561152b57600080fd5b600354811115151561153c57600080fd5b806003600082825403925050819055508173ffffffffffffffffffffffffffffffffffffffff166108fc829081150290604051600060405180830381858888f19350505050151561158c57600080fd5b5050565b600160009054906101000a900473ffffffffffffffffffffffffffffffffffffffff1673ffffffffffffffffffffffffffffffffffffffff163373ffffffffffffffffffffffffffffffffffffffff161415156115ec57600080fd5b7fe95fa7985c7585e90dab2dc46470726468662be06f67d79a31a5012e4bc0edeb6001604051808260010260001916815260200191505060405180910390a1565b600160009054906101000a900473ffffffffffffffffffffffffffffffffffffffff1673ffffffffffffffffffffffffffffffffffffffff163373ffffffffffffffffffffffffffffffffffffffff1614151561168957600080fd5b806000806101000a81548173ffffffffffffffffffffffffffffffffffffffff021916908373ffffffffffffffffffffffffffffffffffffffff16021790555050565b6116d4611d15565b600080878787878760405180866fffffffffffffffffffffffffffffffff19166fffffffffffffffffffffffffffffffff191681526010018573ffffffffffffffffffffffffffffffffffffffff1673ffffffffffffffffffffffffffffffffffffffff166c010000000000000000000000000281526014018473ffffffffffffffffffffffffffffffffffffffff1673ffffffffffffffffffffffffffffffffffffffff166c010000000000000000000000000281526014018381526020018261ffff1661ffff167e0100000000000000000000000000000000000000000000000000000000000002815260020195505050505050604051809103902090506004600082600019166000191681526020019081526020016000208181606060405190810160405290816000820160009054906101000a900460ff161515151581526020016000820160019054906101000a900463ffffffff1663ffffffff1663ffffffff1681526020016000820160059054906101000a90046fffffffffffffffffffffffffffffffff166fffffffffffffffffffffffffffffffff166fffffffffffffffffffffffffffffffff1681525050915092509250509550959350505050565b60035481565b6118aa838287611b2d565b15156118b557600080fd5b6118c684848461ffff166000611a98565b7f6eec2dd2382427616d4ea7ef183b16091feac4e2e63c8b55f25215f132df8d146001604051808260010260001916815260200191505060405180910390a1505050505050565b6000611917611d15565b6000600160009054906101000a900473ffffffffffffffffffffffffffffffffffffffff1673ffffffffffffffffffffffffffffffffffffffff163373ffffffffffffffffffffffffffffffffffffffff1614151561197557600080fd5b61198288888888886116cc565b915091508160000151151561199a5760009250611a8d565b600460008260001916600019168152602001908152602001600020600080820160006101000a81549060ff02191690556000820160016101000a81549063ffffffff02191690556000820160056101000a8154906fffffffffffffffffffffffffffffffff021916905550506001600760009054906101000a900463ffffffff1603600760006101000a81548163ffffffff021916908363ffffffff160217905550611a4d86868661ffff166000611a98565b7f6eec2dd2382427616d4ea7ef183b16091feac4e2e63c8b55f25215f132df8d146001604051808260010260001916815260200191505060405180910390a15b505095945050505050565b6000826fffffffffffffffffffffffffffffffff166127108361ffff168602811515611ac057fe5b04019050838185031115611ad357611b26565b806003600082825401925050819055508473ffffffffffffffffffffffffffffffffffffffff166108fc8286039081150290604051600060405180830381858888f193505050501515611b2557600080fd5b5b5050505050565b600080611b913086604051808373ffffffffffffffffffffffffffffffffffffffff1673ffffffffffffffffffffffffffffffffffffffff166c01000000000000000000000000028152601401828152602001925050506040518091039020611bd5565b90508273ffffffffffffffffffffffffffffffffffffffff16611bb48286611c24565b73ffffffffffffffffffffffffffffffffffffffff16149150509392505050565b60008160405180807f19457468657265756d205369676e6564204d6573736167653a0a333200000000815250601c01826000191660001916815260200191505060405180910390209050919050565b600080600080611c3385611cd1565b809350819450829550505050600186848484604051600081526020016040526000604051602001526040518085600019166000191681526020018460ff1660ff16815260200183600019166000191681526020018260001916600019168152602001945050505050602060405160208103908084039060008661646e5a03f11515611cbd57600080fd5b505060206040510351935050505092915050565b60008060008060008060418751141515611cea57600080fd5b6020870151925060408701519150606087015160001a90508083839550955095505050509193909250565b606060405190810160405280600015158152602001600063ffffffff16815260200160006fffffffffffffffffffffffffffffffff16815250905600a165627a7a72305820dde8a8900959b10074844d035c36ceb6acd6104646075820c51afa588e8a315e0029",
  "source": "pragma solidity ^0.4.18;\ncontract LocalEthereumEscrows {\n    // The address of the arbitrator\n    // In the first version, this is always localethereum staff.\n    address public arbitrator;\n    address public owner;\n    address public relayer;\n\n    uint32 public requestCancellationMinimumTime;\n    uint256 public feesAvailableForWithdraw;\n\n    uint8 constant ACTION_SELLER_CANNOT_CANCEL = 0x01; // Called when marking as paid or calling a dispute as the buyer\n    uint8 constant ACTION_BUYER_CANCEL = 0x02;\n    uint8 constant ACTION_SELLER_CANCEL = 0x03;\n    uint8 constant ACTION_SELLER_REQUEST_CANCEL = 0x04;\n    uint8 constant ACTION_RELEASE = 0x05;\n    uint8 constant ACTION_DISPUTE = 0x06;\n\n\n    event Created(bytes32 _tradeHash);\n    event SellerCancelDisabled(bytes32 _tradeHash);\n    event SellerRequestedCancel(bytes32 _tradeHash);\n    event CancelledBySeller(bytes32 _tradeHash);\n    event CancelledByBuyer(bytes32 _tradeHash);\n    event Released(bytes32 _tradeHash);\n    event DisputeResolved(bytes32 _tradeHash);\n\n    struct Escrow {\n        // Set so we know the trade has already been created\n        bool exists;\n        // The timestamp in which the seller can cancel the trade if the buyer has not yet marked as paid. Set to 0 on marked paid or dispute\n        // 1 = unlimited cancel time\n        uint32 sellerCanCancelAfter;\n        // The total cost of gas spent by relaying parties. This amount will be\n        // refunded/paid to localethereum.com once the escrow is finished.\n        uint128 totalGasFeesSpentByRelayer;\n    }\n    // Mapping of active trades. Key is a hash of the trade data\n    mapping (bytes32 => Escrow) public escrows;\n\n    modifier onlyOwner() {\n        require(msg.sender == owner);\n        _;\n    }\n\n    modifier onlyArbitrator() {\n        require(msg.sender == arbitrator);\n        _;\n    }\n\n    function LocalEthereumEscrows() public {\n        /**\n         * Initialize the contract.\n         */\n        owner = msg.sender;\n        arbitrator = msg.sender;\n        relayer = msg.sender;\n        requestCancellationMinimumTime = 2 hours; // TODO\n    }\n\n    function setArbitrator(address _newArbitrator) onlyOwner external {\n        /**\n         * Set the arbitrator to a new address. Only the owner can call this.\n         * @param address _newArbitrator\n         */\n        arbitrator = _newArbitrator;\n    }\n\n    function setOwner(address _newOwner) onlyOwner external {\n        /**\n         * Change the owner to a new address. Only the owner can call this.\n         * @param address _newOwner\n         */\n        owner = _newOwner;\n    }\n\n    function setRelayer(address _newRelayer) onlyOwner external {\n        /**\n         * Change the relayer to a new address. Only the owner can call this.\n         * @param address _newRelayer\n         */\n        relayer = _newRelayer;\n    }\n\n    function setRequestCancellationMinimumTime(uint32 _newRequestCancellationMinimumTime) onlyOwner external {\n        /**\n         * Change the requestCancellationMinimumTime. Only the owner can call this.\n         * @param uint32 _newRequestCancellationMinimumTime\n         */\n        requestCancellationMinimumTime = _newRequestCancellationMinimumTime;\n    }\n\n\n    function getEscrowAndHash(\n      /**\n       * Hashes the values and returns the matching escrow object and trade hash.\n       * Returns an empty escrow struct and 0 _tradeHash if not found\n       */\n      bytes16 _tradeID,\n      address _seller,\n      address _buyer,\n      uint256 _value,\n      uint16 _fee\n    ) view public returns (Escrow, bytes32) {\n        bytes32 _tradeHash = keccak256(_tradeID, _seller, _buyer, _value, _fee);\n        return (escrows[_tradeHash], _tradeHash);\n    }\n\n    function createEscrow(\n          bytes16 _tradeID,\n          address _seller, // The selling party of the trade\n          address _buyer, // The buying party of the trade\n          uint256 _value,\n          uint16 _fee ,\n          uint32 _paymentWindowInSeconds, // The time in seconds from contract creation that the buyer has to mark as paid\n          uint32 _expiry // Provided by localethereum.com. This transaction must be created before this time.\n      )  external payable{\n\n        bytes32 _tradeHash = keccak256(_tradeID, _seller, _buyer, _value, _fee);\n        //require(!escrows[_tradeHash].exists); // Require that trade does not already exist\n        require(block.timestamp < _expiry);\n        require(msg.value == _value && msg.value > 0); // Check sent eth against signed _value and make sure is not 0\n        uint32 _sellerCanCancelAfter = _paymentWindowInSeconds == 0 ? 1 : uint32(block.timestamp) + _paymentWindowInSeconds;\n        escrows[_tradeHash] = Escrow(true, _sellerCanCancelAfter, 0);\n\n        number = number + 1;\n        value = _expiry + 1;\n        tradeHash  = _tradeHash;\n\n        //_buyer.transfer(_value - _fee);\n\n        Created(0x01);\n\n    }\n\n    function doBuyerCancel(\n       bytes16 _tradeID,\n       address _seller,\n       address _buyer,\n       uint256 _value,\n       uint16 _fee\n    ) onlyOwner external returns (bool) {\n        var (_escrow, _tradeHash) = getEscrowAndHash(_tradeID, _seller, _buyer, _value, _fee);\n        if (!_escrow.exists) return false;\n        delete escrows[_tradeHash];\n\n        number = number -1;\n        // return the eth token back to seller  not buyer but seller\n        transferMinusFees(_buyer,_value,_fee,0);\n        CancelledByBuyer(0x01);\n    }\n\n\n\n    function doSellerCancel(\n           bytes16 _tradeID,\n           address _seller,\n           address _buyer,\n           uint256 _value,\n           uint16 _fee\n           ) onlyOwner external returns (bool) {\n\n        var (_escrow, _tradeHash) = getEscrowAndHash(_tradeID, _seller, _buyer, _value, _fee);\n        if (!_escrow.exists) return false;\n        delete escrows[_tradeHash];\n\n        number = number -1;\n        // return the eth token back to seller\n        transferMinusFees(_seller,_value,_fee,0);\n        CancelledBySeller(0x01);\n    }\n\n    function doRelease(\n           bytes16 _tradeID,\n           address _seller,\n           address _buyer,\n           uint256 _value,\n           uint16 _fee\n      ) onlyOwner external returns (bool) {\n\n        var (_escrow, _tradeHash) = getEscrowAndHash(_tradeID, _seller, _buyer, _value, _fee); //\n        if (!_escrow.exists) return false;\n        delete escrows[_tradeHash];\n\n        number = number -1;\n        transferMinusFees(_buyer,_value,_fee,0);\n        Released(0x01);\n    }\n\n\n\n\n\n\n    function doDisableSellerCancel() onlyOwner external {\n\n        SellerCancelDisabled(0x01);\n    }\n\n\n\n\n    function claimTimeout(\n                   bytes16 _tradeID,\n                   address _seller,\n                   address _buyer,\n                   uint256 _value,\n                   uint16 _fee\n               ) public returns (bool){\n\n        var (_escrow, _tradeHash) = getEscrowAndHash(_tradeID, _seller, _buyer, _value, _fee);\n        if (!_escrow.exists) return false;\n\n        require(now >= _escrow.sellerCanCancelAfter);\n\n        selfdestruct(_seller);\n        delete escrows[_tradeHash];\n\n        Released(0x01);\n\n    }\n\n\n    function close( bytes16 _tradeID,\n                    address _seller,\n                    address _buyer,\n                    uint256 _value,\n                    uint16 _fee,\n                    bytes signature) public {\n        //require(msg.sender == _seller);\n        require(isValidSignature(_value, signature, _seller));\n\n        transferMinusFees(_buyer,_value,_fee,0);\n\n        //_buyer.transfer(_value);\n        //selfdestruct(_seller);\n\n        Released(0x01);\n\n    }\n\n\n\n\n\n\n    function transferMinusFees(address _to, uint256 _value, uint128 _totalGasFeesSpentByRelayer, uint16 _fee) private {\n        uint256 _totalFees = (_value * _fee / 10000) + _totalGasFeesSpentByRelayer;\n        if(_value - _totalFees > _value) return; // Prevent underflow\n        feesAvailableForWithdraw += _totalFees; // Add the the pot for localethereum to withdraw\n        _to.transfer(_value - _totalFees);\n    }\n\n    function withdrawFees(address _to, uint256 _amount) onlyOwner external {\n        require(_amount <= feesAvailableForWithdraw); // Also prevents underflow\n        feesAvailableForWithdraw -= _amount;\n        _to.transfer(_amount);\n    }\n\n    function getBalance() onlyOwner external returns(uint){\n        return this.balance;\n    }\n\n\n\n\n    //////for testing//////\n/*\n    function check( bytes16 _tradeID,\n                    address _seller,\n                    address _buyer,\n                    uint256 _value,\n                    uint16 _fee,\n                    bytes signature) public returns (address, address){\n\n        return ( getValidSignature(_value, signature),msg.sender );\n    }\n\n    function check2( bytes16 _tradeID,\n                    address _seller,\n                    address _buyer,\n                    uint256 _value,\n                    uint16 _fee,\n                    bytes signature) public returns (bytes32,uint256, bytes){\n\n        return (  prefixed(keccak256(this, _value)) ,_value, signature );\n    }\n\n    function getValidSignature(uint256 amount, bytes signature) internal returns (address){\n        bytes32 message = prefixed(keccak256(this, amount));\n\n        // Check that the signature is from the payment sender.\n        return recoverSigner(message, signature);\n    }\n*/\n    //////for testing//////\n\n\n\n\n    function isValidSignature(uint256 amount, bytes signature, address sender) internal returns (bool){\n        bytes32 message = prefixed(keccak256(this, amount));\n\n        // Check that the signature is from the payment sender.\n        return recoverSigner(message, signature) == sender;\n    }\n\n    function splitSignature(bytes sig) internal pure returns (uint8, bytes32, bytes32) {\n        require(sig.length == 65);\n\n        bytes32 r;\n        bytes32 s;\n        uint8 v;\n\n        assembly {\n            // first 32 bytes, after the length prefix\n            r := mload(add(sig, 32))\n            // second 32 bytes\n            s := mload(add(sig, 64))\n            // final byte (first byte of the next 32 bytes)\n            v := byte(0, mload(add(sig, 96)))\n        }\n        return (v, r, s);\n    }\n\n    function recoverSigner(bytes32 message, bytes sig) internal pure returns (address) {\n        uint8 v;\n        bytes32 r;\n        bytes32 s;\n\n        (v, r, s) = splitSignature(sig);\n\n        return ecrecover(message, v, r, s);\n    }\n\n    // Builds a prefixed hash to mimic the behavior of eth_sign.\n    function prefixed(bytes32 hash) internal pure returns (bytes32) {\n        return keccak256(\"\\x19Ethereum Signed Message:\\n32\", hash);\n\n    }\n\n\n\n\n\n\n\n\n\n\n\n\n    uint32 value = 10;\n    bytes32 tradeHash ;\n    uint32 number = 0;\n\n    function getValue()  external view returns (uint32,bytes32)  {\n        return (value,tradeHash);\n    }\n\n    function getTimestamp() external view returns (uint32){\n       return uint32(block.timestamp);\n    }\n\n    function getEscrowData(bytes32 _tradeHash)  external view returns (bool, uint32,uint32)  {\n        Escrow memory escrow =  escrows[_tradeHash];\n        return (escrow.exists , escrow.sellerCanCancelAfter, requestCancellationMinimumTime);\n    }\n\n    function getEscrowNumber()  external view returns (uint32)  {\n        return number;\n    }\n\n\n}\n",
  "sourcePath": "/Users/xisizhe/Documents/projects/decentralized_exchange/ngx-admin-master/contracts/LocalEthereumEscrows.sol",
  "compiler": {
    "name": "solc",
    "version": "0.4.18+commit.9cf6e910.Emscripten.clang"
  },
  "schemaVersion": "1.0.1",
  "updatedAt": "2018-03-11T01:22:50.927Z"
}