{
  "contractName": "SimpleTokenMarket",
  "abi": [
    {
      "constant": false,
      "inputs": [
        {
          "name": "token",
          "type": "address"
        },
        {
          "name": "amount",
          "type": "uint256"
        },
        {
          "name": "timeout",
          "type": "uint256"
        }
      ],
      "name": "deposit",
      "outputs": [],
      "payable": false,
      "stateMutability": "nonpayable",
      "type": "function"
    },
    {
      "constant": true,
      "inputs": [
        {
          "name": "",
          "type": "address"
        }
      ],
      "name": "balances",
      "outputs": [
        {
          "name": "expiry",
          "type": "uint256"
        },
        {
          "name": "amount",
          "type": "uint256"
        }
      ],
      "payable": false,
      "stateMutability": "view",
      "type": "function"
    },
    {
      "constant": false,
      "inputs": [],
      "name": "hasDeposit",
      "outputs": [
        {
          "name": "",
          "type": "uint256"
        }
      ],
      "payable": false,
      "stateMutability": "nonpayable",
      "type": "function"
    },
    {
      "constant": false,
      "inputs": [
        {
          "name": "token",
          "type": "address"
        },
        {
          "name": "amount",
          "type": "uint256"
        }
      ],
      "name": "withdraw",
      "outputs": [],
      "payable": false,
      "stateMutability": "nonpayable",
      "type": "function"
    },
    {
      "inputs": [],
      "payable": false,
      "stateMutability": "nonpayable",
      "type": "constructor"
    }
  ],
  "bytecode": "0x6060604052341561000f57600080fd5b61054d8061001e6000396000f300606060405260043610610062576000357c0100000000000000000000000000000000000000000000000000000000900463ffffffff1680630efe6a8b1461006757806327e235e3146100b25780639b47bb3c14610106578063f3fef3a31461012f575b600080fd5b341561007257600080fd5b6100b0600480803573ffffffffffffffffffffffffffffffffffffffff16906020019091908035906020019091908035906020019091905050610171565b005b34156100bd57600080fd5b6100e9600480803573ffffffffffffffffffffffffffffffffffffffff169060200190919050506102ff565b604051808381526020018281526020019250505060405180910390f35b341561011157600080fd5b610119610323565b6040518082815260200191505060405180910390f35b341561013a57600080fd5b61016f600480803573ffffffffffffffffffffffffffffffffffffffff1690602001909190803590602001909190505061036c565b005b816000803373ffffffffffffffffffffffffffffffffffffffff1673ffffffffffffffffffffffffffffffffffffffff168152602001908152602001600020600101819055508042016000803373ffffffffffffffffffffffffffffffffffffffff1673ffffffffffffffffffffffffffffffffffffffff168152602001908152602001600020600001819055508273ffffffffffffffffffffffffffffffffffffffff166323b872dd3330856000604051602001526040518463ffffffff167c0100000000000000000000000000000000000000000000000000000000028152600401808473ffffffffffffffffffffffffffffffffffffffff1673ffffffffffffffffffffffffffffffffffffffff1681526020018373ffffffffffffffffffffffffffffffffffffffff1673ffffffffffffffffffffffffffffffffffffffff1681526020018281526020019350505050602060405180830381600087803b15156102de57600080fd5b6102c65a03f115156102ef57600080fd5b5050506040518051905050505050565b60006020528060005260406000206000915090508060000154908060010154905082565b60008060003373ffffffffffffffffffffffffffffffffffffffff1673ffffffffffffffffffffffffffffffffffffffff16815260200190815260200160002060010154905090565b426000803373ffffffffffffffffffffffffffffffffffffffff1673ffffffffffffffffffffffffffffffffffffffff16815260200190815260200160002060000154111561051d578173ffffffffffffffffffffffffffffffffffffffff1663a9059cbb33836000604051602001526040518363ffffffff167c0100000000000000000000000000000000000000000000000000000000028152600401808373ffffffffffffffffffffffffffffffffffffffff1673ffffffffffffffffffffffffffffffffffffffff16815260200182815260200192505050602060405180830381600087803b151561046057600080fd5b6102c65a03f1151561047157600080fd5b5050506040518051905050806000803373ffffffffffffffffffffffffffffffffffffffff1673ffffffffffffffffffffffffffffffffffffffff168152602001908152602001600020600101600082825403925050819055506000803373ffffffffffffffffffffffffffffffffffffffff1673ffffffffffffffffffffffffffffffffffffffff168152602001908152602001600020600080820160009055600182016000905550505b50505600a165627a7a72305820e2abc3dd114a3bb65e047b21599ba2007f5269e8c14d95530317495a2201098e0029",
  "source": "pragma solidity ^0.4.18;\nimport 'zeppelin-solidity/contracts/token/ERC20/ERC20.sol';\n\ncontract SimpleTokenMarket {\n\n   struct Escrow{\n      uint256 expiry;\n      uint256 amount;\n   }\n\n   function SimpleTokenMarket() public{\n\n   }\n\n   mapping (address => Escrow) public balances;\n\n   modifier nonZeroAddress(address serviceProvider) {\n       require(serviceProvider != 0x0);\n       _;\n   }\n\n   modifier nonZeroNumber(uint number) {\n       require(number > 0);\n       _;\n   }\n\n   modifier senderHasApprovedTransfer(ERC20 token, uint amount) {\n       require(token.allowance(msg.sender, this) >= amount);\n       _;\n   }\n\n   modifier senderCanAfford(ERC20 token,uint amount) {\n       require(token.balanceOf(msg.sender) >= amount);\n       _;\n   }\n\n   function hasDeposit() returns (uint256){\n      return balances[msg.sender].amount;\n   }\n\n   // @param timeout == seconds,\n   function deposit(ERC20 token, uint256 amount, uint256 timeout)  external{\n\n        balances[msg.sender].amount = amount;\n        balances[msg.sender].expiry = now + timeout;\n        token.transferFrom(msg.sender,this, amount);\n\n   }\n\n   function withdraw(ERC20 token, uint256 amount)  external {\n      // check msg.sender, token_address valid\n      // check balance[msg.sender] has balance & balance > amount\n\n       if(balances[msg.sender].expiry > now){\n          token.transfer(msg.sender, amount);\n          balances[msg.sender].amount -= amount;\n          delete balances[msg.sender];\n       }\n   }\n\n}\n",
  "sourcePath": "/Users/xisizhe/Documents/projects/decentralized_exchange/ngx-admin-master/contracts/SimpleTokenMarket.sol",
  "compiler": {
    "name": "solc",
    "version": "0.4.18+commit.9cf6e910.Emscripten.clang"
  },
  "schemaVersion": "1.0.1",
  "updatedAt": "2018-03-12T02:16:38.435Z"
}