{
  "contractName": "LocalEthereumEscrows",
  "abi": [
    {
      "constant": false,
      "inputs": [
        {
          "name": "_newRequestCancellationMinimumTime",
          "type": "uint32"
        }
      ],
      "name": "setRequestCancellationMinimumTime",
      "outputs": [],
      "payable": false,
      "stateMutability": "nonpayable",
      "type": "function"
    },
    {
      "constant": false,
      "inputs": [
        {
          "name": "_newOwner",
          "type": "address"
        }
      ],
      "name": "setOwner",
      "outputs": [],
      "payable": false,
      "stateMutability": "nonpayable",
      "type": "function"
    },
    {
      "constant": true,
      "inputs": [],
      "name": "requestCancellationMinimumTime",
      "outputs": [
        {
          "name": "",
          "type": "uint32"
        }
      ],
      "payable": false,
      "stateMutability": "view",
      "type": "function"
    },
    {
      "constant": false,
      "inputs": [
        {
          "name": "_newRelayer",
          "type": "address"
        }
      ],
      "name": "setRelayer",
      "outputs": [],
      "payable": false,
      "stateMutability": "nonpayable",
      "type": "function"
    },
    {
      "constant": true,
      "inputs": [],
      "name": "arbitrator",
      "outputs": [
        {
          "name": "",
          "type": "address"
        }
      ],
      "payable": false,
      "stateMutability": "view",
      "type": "function"
    },
    {
      "constant": true,
      "inputs": [],
      "name": "relayer",
      "outputs": [
        {
          "name": "",
          "type": "address"
        }
      ],
      "payable": false,
      "stateMutability": "view",
      "type": "function"
    },
    {
      "constant": true,
      "inputs": [],
      "name": "owner",
      "outputs": [
        {
          "name": "",
          "type": "address"
        }
      ],
      "payable": false,
      "stateMutability": "view",
      "type": "function"
    },
    {
      "constant": false,
      "inputs": [
        {
          "name": "_newArbitrator",
          "type": "address"
        }
      ],
      "name": "setArbitrator",
      "outputs": [],
      "payable": false,
      "stateMutability": "nonpayable",
      "type": "function"
    },
    {
      "constant": true,
      "inputs": [],
      "name": "feesAvailableForWithdraw",
      "outputs": [
        {
          "name": "",
          "type": "uint256"
        }
      ],
      "payable": false,
      "stateMutability": "view",
      "type": "function"
    },
    {
      "inputs": [],
      "payable": false,
      "stateMutability": "nonpayable",
      "type": "constructor"
    },
    {
      "anonymous": false,
      "inputs": [
        {
          "indexed": false,
          "name": "_tradeHash",
          "type": "bytes32"
        }
      ],
      "name": "Created",
      "type": "event"
    },
    {
      "anonymous": false,
      "inputs": [
        {
          "indexed": false,
          "name": "_tradeHash",
          "type": "bytes32"
        }
      ],
      "name": "SellerCancelDisabled",
      "type": "event"
    },
    {
      "anonymous": false,
      "inputs": [
        {
          "indexed": false,
          "name": "_tradeHash",
          "type": "bytes32"
        }
      ],
      "name": "SellerRequestedCancel",
      "type": "event"
    },
    {
      "anonymous": false,
      "inputs": [
        {
          "indexed": false,
          "name": "_tradeHash",
          "type": "bytes32"
        }
      ],
      "name": "CancelledBySeller",
      "type": "event"
    },
    {
      "anonymous": false,
      "inputs": [
        {
          "indexed": false,
          "name": "_tradeHash",
          "type": "bytes32"
        }
      ],
      "name": "CancelledByBuyer",
      "type": "event"
    },
    {
      "anonymous": false,
      "inputs": [
        {
          "indexed": false,
          "name": "_tradeHash",
          "type": "bytes32"
        }
      ],
      "name": "Released",
      "type": "event"
    },
    {
      "anonymous": false,
      "inputs": [
        {
          "indexed": false,
          "name": "_tradeHash",
          "type": "bytes32"
        }
      ],
      "name": "DisputeResolved",
      "type": "event"
    }
  ],
  "bytecode": "0x6060604052341561000f57600080fd5b33600160006101000a81548173ffffffffffffffffffffffffffffffffffffffff021916908373ffffffffffffffffffffffffffffffffffffffff160217905550336000806101000a81548173ffffffffffffffffffffffffffffffffffffffff021916908373ffffffffffffffffffffffffffffffffffffffff16021790555033600260006101000a81548173ffffffffffffffffffffffffffffffffffffffff021916908373ffffffffffffffffffffffffffffffffffffffff160217905550611c20600260146101000a81548163ffffffff021916908363ffffffff1602179055506105e7806101036000396000f300606060405260043610610099576000357c0100000000000000000000000000000000000000000000000000000000900463ffffffff16806305b649931461009e57806313af4035146100c757806357938b2a146101005780636548e9bc146101355780636cc6cde11461016e5780638406c079146101c35780638da5cb5b14610218578063b0eefabe1461026d578063de5785d5146102a6575b600080fd5b34156100a957600080fd5b6100c5600480803563ffffffff169060200190919050506102cf565b005b34156100d257600080fd5b6100fe600480803573ffffffffffffffffffffffffffffffffffffffff1690602001909190505061034f565b005b341561010b57600080fd5b6101136103ef565b604051808263ffffffff1663ffffffff16815260200191505060405180910390f35b341561014057600080fd5b61016c600480803573ffffffffffffffffffffffffffffffffffffffff16906020019091905050610405565b005b341561017957600080fd5b6101816104a5565b604051808273ffffffffffffffffffffffffffffffffffffffff1673ffffffffffffffffffffffffffffffffffffffff16815260200191505060405180910390f35b34156101ce57600080fd5b6101d66104ca565b604051808273ffffffffffffffffffffffffffffffffffffffff1673ffffffffffffffffffffffffffffffffffffffff16815260200191505060405180910390f35b341561022357600080fd5b61022b6104f0565b604051808273ffffffffffffffffffffffffffffffffffffffff1673ffffffffffffffffffffffffffffffffffffffff16815260200191505060405180910390f35b341561027857600080fd5b6102a4600480803573ffffffffffffffffffffffffffffffffffffffff16906020019091905050610516565b005b34156102b157600080fd5b6102b96105b5565b6040518082815260200191505060405180910390f35b600160009054906101000a900473ffffffffffffffffffffffffffffffffffffffff1673ffffffffffffffffffffffffffffffffffffffff163373ffffffffffffffffffffffffffffffffffffffff1614151561032b57600080fd5b80600260146101000a81548163ffffffff021916908363ffffffff16021790555050565b600160009054906101000a900473ffffffffffffffffffffffffffffffffffffffff1673ffffffffffffffffffffffffffffffffffffffff163373ffffffffffffffffffffffffffffffffffffffff161415156103ab57600080fd5b80600160006101000a81548173ffffffffffffffffffffffffffffffffffffffff021916908373ffffffffffffffffffffffffffffffffffffffff16021790555050565b600260149054906101000a900463ffffffff1681565b600160009054906101000a900473ffffffffffffffffffffffffffffffffffffffff1673ffffffffffffffffffffffffffffffffffffffff163373ffffffffffffffffffffffffffffffffffffffff1614151561046157600080fd5b80600260006101000a81548173ffffffffffffffffffffffffffffffffffffffff021916908373ffffffffffffffffffffffffffffffffffffffff16021790555050565b6000809054906101000a900473ffffffffffffffffffffffffffffffffffffffff1681565b600260009054906101000a900473ffffffffffffffffffffffffffffffffffffffff1681565b600160009054906101000a900473ffffffffffffffffffffffffffffffffffffffff1681565b600160009054906101000a900473ffffffffffffffffffffffffffffffffffffffff1673ffffffffffffffffffffffffffffffffffffffff163373ffffffffffffffffffffffffffffffffffffffff1614151561057257600080fd5b806000806101000a81548173ffffffffffffffffffffffffffffffffffffffff021916908373ffffffffffffffffffffffffffffffffffffffff16021790555050565b600354815600a165627a7a72305820c77aac6d8ca5c8ec7c0c1cca0ebbc6e0ea4fa744efe8ca30114fde6c42c821ab0029",
  "source": "pragma solidity ^0.4.18;\ncontract LocalEthereumEscrows {\n    // The address of the arbitrator\n    // In the first version, this is always localethereum staff.\n    address public arbitrator;\n    address public owner;\n    address public relayer;\n\n    uint32 public requestCancellationMinimumTime;\n    uint256 public feesAvailableForWithdraw;\n\n    uint8 constant ACTION_SELLER_CANNOT_CANCEL = 0x01; // Called when marking as paid or calling a dispute as the buyer\n    uint8 constant ACTION_BUYER_CANCEL = 0x02;\n    uint8 constant ACTION_SELLER_CANCEL = 0x03;\n    uint8 constant ACTION_SELLER_REQUEST_CANCEL = 0x04;\n    uint8 constant ACTION_RELEASE = 0x05;\n    uint8 constant ACTION_DISPUTE = 0x06;\n\n    event Created(bytes32 _tradeHash);\n    event SellerCancelDisabled(bytes32 _tradeHash);\n    event SellerRequestedCancel(bytes32 _tradeHash);\n    event CancelledBySeller(bytes32 _tradeHash);\n    event CancelledByBuyer(bytes32 _tradeHash);\n    event Released(bytes32 _tradeHash);\n    event DisputeResolved(bytes32 _tradeHash);\n\n    modifier onlyOwner() {\n        require(msg.sender == owner);\n        _;\n    }\n\n    modifier onlyArbitrator() {\n        require(msg.sender == arbitrator);\n        _;\n    }\n\n    function LocalEthereumEscrows() public {\n        /**\n         * Initialize the contract.\n         */\n        owner = msg.sender;\n        arbitrator = msg.sender;\n        relayer = msg.sender;\n        requestCancellationMinimumTime = 2 hours; // TODO\n    }\n\n    function setArbitrator(address _newArbitrator) onlyOwner external {\n        /**\n         * Set the arbitrator to a new address. Only the owner can call this.\n         * @param address _newArbitrator\n         */\n        arbitrator = _newArbitrator;\n    }\n\n    function setOwner(address _newOwner) onlyOwner external {\n        /**\n         * Change the owner to a new address. Only the owner can call this.\n         * @param address _newOwner\n         */\n        owner = _newOwner;\n    }\n\n    function setRelayer(address _newRelayer) onlyOwner external {\n        /**\n         * Change the relayer to a new address. Only the owner can call this.\n         * @param address _newRelayer\n         */\n        relayer = _newRelayer;\n    }\n\n    function setRequestCancellationMinimumTime(uint32 _newRequestCancellationMinimumTime) onlyOwner external {\n        /**\n         * Change the requestCancellationMinimumTime. Only the owner can call this.\n         * @param uint32 _newRequestCancellationMinimumTime\n         */\n        requestCancellationMinimumTime = _newRequestCancellationMinimumTime;\n    }\n\n}                        ",
  "sourcePath": "/home/sizhexi/parking/eth/ngx-admin-master/contracts/LocalEthereumEscrows.sol",
  "compiler": {
    "name": "solc",
    "version": "0.4.18+commit.9cf6e910.Emscripten.clang"
  },
  "schemaVersion": "1.0.1",
  "updatedAt": "2017-11-21T01:19:21.835Z"
}